{
    "contractName": "Atomex",
    "abi": [
        {
            "anonymous": false,
            "inputs": [
                {
                    "indexed": true,
                    "internalType": "bytes32",
                    "name": "_swapId",
                    "type": "bytes32"
                },
                {
                    "indexed": true,
                    "internalType": "address",
                    "name": "_participant",
                    "type": "address"
                },
                {
                    "indexed": false,
                    "internalType": "address",
                    "name": "_initiator",
                    "type": "address"
                },
                {
                    "indexed": false,
                    "internalType": "address",
                    "name": "_watcher",
                    "type": "address"
                },
                {
                    "indexed": false,
                    "internalType": "uint256",
                    "name": "_refundTimestamp",
                    "type": "uint256"
                },
                {
                    "indexed": false,
                    "internalType": "uint256",
                    "name": "_watcherDeadline",
                    "type": "uint256"
                },
                {
                    "indexed": false,
                    "internalType": "uint256",
                    "name": "_value",
                    "type": "uint256"
                },
                {
                    "indexed": false,
                    "internalType": "uint256",
                    "name": "_payoff",
                    "type": "uint256"
                }
            ],
            "name": "Initiated",
            "type": "event"
        },
        {
            "anonymous": false,
            "inputs": [
                {
                    "indexed": false,
                    "internalType": "address",
                    "name": "previousOwner",
                    "type": "address"
                },
                {
                    "indexed": false,
                    "internalType": "address",
                    "name": "newOwner",
                    "type": "address"
                }
            ],
            "name": "NewOwnerProposed",
            "type": "event"
        },
        {
            "anonymous": false,
            "inputs": [
                {
                    "indexed": false,
                    "internalType": "address",
                    "name": "_newWatcher",
                    "type": "address"
                }
            ],
            "name": "NewWatcherActivated",
            "type": "event"
        },
        {
            "anonymous": false,
            "inputs": [
                {
                    "indexed": false,
                    "internalType": "address",
                    "name": "_newWatcher",
                    "type": "address"
                },
                {
                    "indexed": false,
                    "internalType": "uint256",
                    "name": "_deposit",
                    "type": "uint256"
                }
            ],
            "name": "NewWatcherProposed",
            "type": "event"
        },
        {
            "anonymous": false,
            "inputs": [
                {
                    "indexed": false,
                    "internalType": "address",
                    "name": "previousOwner",
                    "type": "address"
                },
                {
                    "indexed": false,
                    "internalType": "address",
                    "name": "newOwner",
                    "type": "address"
                }
            ],
            "name": "OwnershipTransferred",
            "type": "event"
        },
        {
            "anonymous": false,
            "inputs": [
                {
                    "indexed": true,
                    "internalType": "bytes32",
                    "name": "_hashedSecret",
                    "type": "bytes32"
                },
                {
                    "indexed": false,
                    "internalType": "bytes32",
                    "name": "_secret",
                    "type": "bytes32"
                }
            ],
            "name": "Redeemed",
            "type": "event"
        },
        {
            "anonymous": false,
            "inputs": [
                {
                    "indexed": true,
                    "internalType": "bytes32",
                    "name": "_hashedSecret",
                    "type": "bytes32"
                }
            ],
            "name": "Refunded",
            "type": "event"
        },
        {
            "anonymous": false,
            "inputs": [
                {
                    "indexed": true,
                    "internalType": "bytes32",
                    "name": "_hashedSecret",
                    "type": "bytes32"
                }
            ],
            "name": "Released",
            "type": "event"
        },
        {
            "anonymous": false,
            "inputs": [
                {
                    "indexed": false,
                    "internalType": "address",
                    "name": "_watcher",
                    "type": "address"
                }
            ],
            "name": "WatcherDeactivated",
            "type": "event"
        },
        {
            "anonymous": false,
            "inputs": [
                {
                    "indexed": false,
                    "internalType": "address",
                    "name": "_watcher",
                    "type": "address"
                }
            ],
            "name": "WatcherWithdrawn",
            "type": "event"
        },
        {
            "inputs": [],
            "name": "acceptOwnership",
            "outputs": [],
            "stateMutability": "nonpayable",
            "type": "function"
        },
        {
            "inputs": [
                {
                    "internalType": "address",
                    "name": "_newWatcher",
                    "type": "address"
                }
            ],
            "name": "activateWatcher",
            "outputs": [],
            "stateMutability": "nonpayable",
            "type": "function"
        },
        {
            "inputs": [
                {
                    "internalType": "address",
                    "name": "_watcher",
                    "type": "address"
                }
            ],
            "name": "deactivateWatcher",
            "outputs": [],
            "stateMutability": "nonpayable",
            "type": "function"
        },
        {
            "inputs": [
                {
                    "internalType": "bytes32",
                    "name": "_hashedSecret",
                    "type": "bytes32"
                },
                {
                    "internalType": "address",
                    "name": "_participant",
                    "type": "address"
                },
                {
                    "internalType": "address",
                    "name": "_watcher",
                    "type": "address"
                },
                {
                    "internalType": "uint256",
                    "name": "_refundTimestamp",
                    "type": "uint256"
                },
                {
                    "internalType": "bool",
                    "name": "_watcherForRedeem",
                    "type": "bool"
                },
                {
                    "internalType": "uint256",
                    "name": "_payoff",
                    "type": "uint256"
                }
            ],
            "name": "initiate",
            "outputs": [],
            "stateMutability": "payable",
            "type": "function"
        },
        {
            "inputs": [
                {
                    "internalType": "bytes32",
                    "name": "_hashedSecret",
                    "type": "bytes32"
                },
                {
                    "internalType": "address",
                    "name": "_initiator",
                    "type": "address"
                }
            ],
            "name": "multikey",
            "outputs": [
                {
                    "internalType": "bytes32",
                    "name": "",
                    "type": "bytes32"
                }
            ],
            "stateMutability": "pure",
            "type": "function"
        },
        {
            "inputs": [],
            "name": "owner",
            "outputs": [
                {
                    "internalType": "address",
                    "name": "",
                    "type": "address"
                }
            ],
            "stateMutability": "view",
            "type": "function"
        },
        {
            "inputs": [
                {
                    "internalType": "address",
                    "name": "newOwner",
                    "type": "address"
                }
            ],
            "name": "proposeOwner",
            "outputs": [],
            "stateMutability": "nonpayable",
            "type": "function"
        },
        {
            "inputs": [
                {
                    "internalType": "address",
                    "name": "_newWatcher",
                    "type": "address"
                }
            ],
            "name": "proposeWatcher",
            "outputs": [],
            "stateMutability": "payable",
            "type": "function"
        },
        {
            "inputs": [
                {
                    "internalType": "bytes32",
                    "name": "_swapId",
                    "type": "bytes32"
                },
                {
                    "internalType": "bytes32",
                    "name": "_secret",
                    "type": "bytes32"
                }
            ],
            "name": "redeem",
            "outputs": [],
            "stateMutability": "nonpayable",
            "type": "function"
        },
        {
            "inputs": [
                {
                    "internalType": "bytes32",
                    "name": "_swapId",
                    "type": "bytes32"
                }
            ],
            "name": "refund",
            "outputs": [],
            "stateMutability": "nonpayable",
            "type": "function"
        },
        {
            "inputs": [
                {
                    "internalType": "bytes32",
                    "name": "_swapId",
                    "type": "bytes32"
                }
            ],
            "name": "release",
            "outputs": [],
            "stateMutability": "nonpayable",
            "type": "function"
        },
        {
            "inputs": [],
            "name": "renounceOwnership",
            "outputs": [],
            "stateMutability": "nonpayable",
            "type": "function"
        },
        {
            "inputs": [],
            "name": "successor",
            "outputs": [
                {
                    "internalType": "address",
                    "name": "",
                    "type": "address"
                }
            ],
            "stateMutability": "view",
            "type": "function"
        },
        {
            "inputs": [
                {
                    "internalType": "bytes32",
                    "name": "",
                    "type": "bytes32"
                }
            ],
            "name": "swaps",
            "outputs": [
                {
                    "internalType": "bytes32",
                    "name": "hashedSecret",
                    "type": "bytes32"
                },
                {
                    "internalType": "address payable",
                    "name": "initiator",
                    "type": "address"
                },
                {
                    "internalType": "address payable",
                    "name": "participant",
                    "type": "address"
                },
                {
                    "internalType": "address payable",
                    "name": "watcher",
                    "type": "address"
                },
                {
                    "internalType": "uint256",
                    "name": "refundTimestamp",
                    "type": "uint256"
                },
                {
                    "internalType": "uint256",
                    "name": "watcherDeadline",
                    "type": "uint256"
                },
                {
                    "internalType": "uint256",
                    "name": "value",
                    "type": "uint256"
                },
                {
                    "internalType": "uint256",
                    "name": "payoff",
                    "type": "uint256"
                },
                {
                    "internalType": "enum Atomex.State",
                    "name": "state",
                    "type": "uint8"
                }
            ],
            "stateMutability": "view",
            "type": "function"
        },
        {
            "inputs": [
                {
                    "internalType": "address",
                    "name": "",
                    "type": "address"
                }
            ],
            "name": "watchTowers",
            "outputs": [
                {
                    "internalType": "uint256",
                    "name": "deposit",
                    "type": "uint256"
                },
                {
                    "internalType": "bool",
                    "name": "active",
                    "type": "bool"
                }
            ],
            "stateMutability": "view",
            "type": "function"
        },
        {
            "inputs": [],
            "name": "withdrawWatcher",
            "outputs": [],
            "stateMutability": "nonpayable",
            "type": "function"
        }
    ],
    "bytecode": "608060405262093a8060045534801561001757600080fd5b50600080546001600160a01b0319163317905560016002556118588061003e6000396000f3fe6080604052600436106100f35760003560e01c80637bc9c4581161008a578063b5ed298a11610059578063b5ed298a14610262578063bb68634f14610282578063eb84e7f2146102ce578063febdddff1461035c57600080fd5b80637bc9c458146101fe5780638da5cb5b146102115780638e46e9ff1461022f578063b31597ad1461024257600080fd5b80636ff968c3116100c65780636ff968c314610182578063715018a6146101b45780637249fbb6146101c957806379ba5097146101e957600080fd5b806305cda195146100f857806342b253501461011a5780635f69267b1461012f57806367d42a8b14610162575b600080fd5b34801561010457600080fd5b5061011861011336600461152a565b61037c565b005b34801561012657600080fd5b50610118610449565b34801561013b57600080fd5b5061014f61014a366004611574565b61052a565b6040519081526020015b60405180910390f35b34801561016e57600080fd5b5061011861017d366004611544565b6105bf565b34801561018e57600080fd5b506001546001600160a01b03165b6040516001600160a01b039091168152602001610159565b3480156101c057600080fd5b506101186106bf565b3480156101d557600080fd5b506101186101e4366004611544565b610749565b3480156101f557600080fd5b50610118610871565b61011861020c36600461152a565b61093e565b34801561021d57600080fd5b506000546001600160a01b031661019c565b61011861023d36600461159f565b610a77565b34801561024e57600080fd5b5061011861025d366004611605565b610dae565b34801561026e57600080fd5b5061011861027d36600461152a565b611061565b34801561028e57600080fd5b506102b961029d36600461152a565b6003602052600090815260409020805460019091015460ff1682565b60408051928352901515602083015201610159565b3480156102da57600080fd5b506103476102e9366004611544565b600560208190526000918252604090912080546001820154600283015460038401546004850154958501546006860154600787015460089097015495976001600160a01b039586169794861696939095169493919290919060ff1689565b6040516101599998979695949392919061165f565b34801561036857600080fd5b5061011861037736600461152a565b61114c565b6000546001600160a01b031633146103af5760405162461bcd60e51b81526004016103a6906116d5565b60405180910390fd5b6001600160a01b0381166000908152600360205260409020546103e45760405162461bcd60e51b81526004016103a69061170c565b6040516001600160a01b03821681527fc6670b45d45e23a2289145baf78443da14033adc4eff0bdc8a0ffb316722f65d9060200160405180910390a16001600160a01b031660009081526003602052604090206001908101805460ff19169091179055565b60028054141561046b5760405162461bcd60e51b81526004016103a690611786565b600280553360009081526003602052604090205461049b5760405162461bcd60e51b81526004016103a69061170c565b6040513381527f7355f9770d70ef57c74201eeaeb14ac38d26448d574c0b1b55ba17f2fc85282c9060200160405180910390a13360008181526003602052604080822054905181156108fc0292818181858888f19350505050158015610505573d6000803e3d6000fd5b503360009081526003602052604081209081556001908101805460ff19169055600255565b60006002838360405160200161055c92919091825260601b6bffffffffffffffffffffffff1916602082015260340190565b60408051601f198184030181529082905261057691611626565b602060405180830381855afa158015610593573d6000803e3d6000fd5b5050506040513d601f19601f820116820180604052508101906105b6919061155c565b90505b92915050565b6000546001600160a01b031633146105e95760405162461bcd60e51b81526004016103a6906116d5565b60048054600083815260056020526040902090910154829161060b9190611216565b42101561065a5760405162461bcd60e51b815260206004820152601d60248201527f72656c6561736554696d656f757420686173206e6f742070617373656400000060448201526064016103a6565b60008281526005602052604080822060088101805460ff1916600417905554905190917f6eec2dd2382427616d4ea7ef183b16091feac4e2e63c8b55f25215f132df8d1491a26106bb826106b66000546001600160a01b031690565b611274565b5050565b6000546001600160a01b031633146106e95760405162461bcd60e51b81526004016103a6906116d5565b7f8be0079c531659141344cd1fd0a4f28419497f9722a3daafe3b4186f6b6457e061071c6000546001600160a01b031690565b604080516001600160a01b039092168252600060208301520160405180910390a16107476000611484565b565b80600160008281526005602052604090206008015460ff16600481111561078057634e487b7160e01b600052602160045260246000fd5b1461079d5760405162461bcd60e51b81526004016103a69061173c565b60008281526005602052604090206004015482904210156108005760405162461bcd60e51b815260206004820152601c60248201527f726566756e6454696d657374616d7020686173206e6f7420636f6d650000000060448201526064016103a6565b60008381526005602052604080822060088101805460ff1916600317905554905190917ffe509803c09416b28ff3d8f690c8b0c61462a892c46d5430c8fb20abe472daf091a260008381526005602052604090206001015461086c9084906001600160a01b0316611274565b505050565b6001546001600160a01b031633146108cb5760405162461bcd60e51b815260206004820181905260248201527f73656e646572206973206e6f74207468652070726f706f736564206f776e657260448201526064016103a6565b7f8be0079c531659141344cd1fd0a4f28419497f9722a3daafe3b4186f6b6457e06108fe6000546001600160a01b031690565b600154604080516001600160a01b0393841681529290911660208301528051918290030190a16107476109396001546001600160a01b031690565b611484565b6001600160a01b0381166109945760405162461bcd60e51b815260206004820152601760248201527f696e76616c69642077617463686572206164647265737300000000000000000060448201526064016103a6565b600034116109f75760405162461bcd60e51b815260206004820152602a60248201527f74726173616374696f6e2076616c7565206d7573742062652067726561746572604482015269207468656e207a65726f60b01b60648201526084016103a6565b604080516001600160a01b03831681523460208201527f188835058d087a339f294efe7a5ec9ac75c12926056f02fa9a2186616531631e910160405180910390a16001600160a01b038116600090815260036020526040902054610a5b9034611216565b6001600160a01b03909116600090815260036020526040902055565b600280541415610a995760405162461bcd60e51b81526004016103a690611786565b600280558483856001600160a01b038316610af65760405162461bcd60e51b815260206004820152601b60248201527f696e76616c6964207061727469636970616e742061646472657373000000000060448201526064016103a6565b814210610b455760405162461bcd60e51b815260206004820181905260248201527f726566756e6454696d657374616d702068617320616c726561647920636f6d6560448201526064016103a6565b6001600160a01b038116600090815260036020526040902060019081015460ff16151514610b855760405162461bcd60e51b81526004016103a69061170c565b6000610b918a3361052a565b90506000808281526005602052604090206008015460ff166004811115610bc857634e487b7160e01b600052602160045260246000fd5b14610c255760405162461bcd60e51b815260206004820152602760248201527f7377617020666f722074686973206861736820697320616c726561647920696e6044820152661a5d1a585d195960ca1b60648201526084016103a6565b610c2f34866114a6565b600082815260056020526040902060068101919091558a81556002810180546001600160a01b03808d166001600160a01b031992831617909255600183018054821633179055600383018054928c16929091169190911790556004018790558515610ccb57610cb3610cac6003610ca68a426114a6565b90611502565b88906114a6565b60008281526005602081905260409091200155610cf8565b610ce4610cdd6002610ca68a426114a6565b8890611216565b600082815260056020819052604090912001555b60008181526005602081905260409091206007810187905560088101805460ff1916600117905501546001600160a01b038a169082907f71fca8f6f18c2538352a3ee1af0623b197caf1f8d99b57d09670586d3a47c9a79033908c908c90610d60348d6114a6565b604080516001600160a01b039687168152959094166020860152928401919091526060830152608082015260a0810189905260c00160405180910390a3505060016002555050505050505050565b600280541415610dd05760405162461bcd60e51b81526004016103a690611786565b6002805581600160008281526005602052604090206008015460ff166004811115610e0b57634e487b7160e01b600052602160045260246000fd5b14610e285760405162461bcd60e51b81526004016103a69061173c565b60008381526005602052604090206004015483908390421080610e6457506000828152600560205260409020600101546001600160a01b031633145b610eb05760405162461bcd60e51b815260206004820181905260248201527f726566756e6454696d657374616d702068617320616c726561647920636f6d6560448201526064016103a6565b6000828152600560209081526040918290205482519182018490529160029182910160408051601f1981840301815290829052610eec91611626565b602060405180830381855afa158015610f09573d6000803e3d6000fd5b5050506040513d601f19601f82011682018060405250810190610f2c919061155c565b604051602001610f3e91815260200190565b60408051601f1981840301815290829052610f5891611626565b602060405180830381855afa158015610f75573d6000803e3d6000fd5b5050506040513d601f19601f82011682018060405250810190610f98919061155c565b14610fdd5760405162461bcd60e51b81526020600482015260156024820152741cd958dc995d081a5cc81b9bdd0818dbdc9c9958dd605a1b60448201526064016103a6565b60008581526005602090815260409182902060088101805460ff191660021790555491518681527f489e9ee921192823d1aa1ef800c9ffc642993538b1e7e43a4d46a91965e894ab910160405180910390a26000858152600560205260409020600201546110559086906001600160a01b0316611274565b50506001600255505050565b6000546001600160a01b0316331461108b5760405162461bcd60e51b81526004016103a6906116d5565b6001600160a01b0381166110d95760405162461bcd60e51b8152602060048201526015602482015274696e76616c6964206f776e6572206164647265737360581b60448201526064016103a6565b7f331440cf4fb62d167f4b2040f3fb69db7bd23772dee471b39826c42f02f2c70861110c6000546001600160a01b031690565b604080516001600160a01b03928316815291841660208301520160405180910390a1600180546001600160a01b0319166001600160a01b03831617905550565b6000546001600160a01b031633146111765760405162461bcd60e51b81526004016103a6906116d5565b6001600160a01b038116600090815260036020526040902060019081015460ff161515146111b65760405162461bcd60e51b81526004016103a69061170c565b6040516001600160a01b03821681527fb572d9f939ffa20f5590a3f0d2ff786362d4246e3d21a97d758e8b1854dffc039060200160405180910390a16001600160a01b03166000908152600360205260409020600101805460ff19169055565b600061122282846117bd565b9050828110156105b95760405162461bcd60e51b815260206004820152601860248201527f536166654d617468206164642077726f6e672076616c7565000000000000000060448201526064016103a6565b6000828152600560205260409020600301546001600160a01b03163314806112d057506000828152600560208190526040909120015442108015906112d0575033600090815260036020526040902060019081015460ff161515145b8061131b57506000828152600560205260409020600101546001600160a01b03163314801561131b57506000828152600560205260409020600201546001600160a01b038281169116145b156113c2576000828152600560205260408082206006015490516001600160a01b0384169282156108fc02929190818181858888f19350505050158015611366573d6000803e3d6000fd5b50600082815260056020526040902060070154156113bd57600082815260056020526040808220600701549051339282156108fc02929190818181858888f193505050501580156113bb573d6000803e3d6000fd5b505b61141d565b600082815260056020526040902060078101546006909101546001600160a01b038316916108fc916113f391611216565b6040518115909202916000818181858888f1935050505015801561141b573d6000803e3d6000fd5b505b50600090815260056020819052604082208281556001810180546001600160a01b031990811690915560028201805482169055600382018054909116905560048101839055908101829055600681018290556007810191909155600801805460ff19169055565b600080546001600160a01b0319166001600160a01b0392909216919091179055565b6000828211156114f85760405162461bcd60e51b815260206004820152601860248201527f536166654d617468207375622077726f6e672076616c7565000000000000000060448201526064016103a6565b6105b682846117f5565b60006105b682846117d5565b80356001600160a01b038116811461152557600080fd5b919050565b60006020828403121561153b578081fd5b6105b68261150e565b600060208284031215611555578081fd5b5035919050565b60006020828403121561156d578081fd5b5051919050565b60008060408385031215611586578081fd5b823591506115966020840161150e565b90509250929050565b60008060008060008060c087890312156115b7578182fd5b863595506115c76020880161150e565b94506115d56040880161150e565b935060608701359250608087013580151581146115f0578283fd5b8092505060a087013590509295509295509295565b60008060408385031215611617578182fd5b50508035926020909101359150565b60008251815b81811015611646576020818601810151858301520161162c565b818111156116545782828501525b509190910192915050565b8981526001600160a01b0389811660208301528881166040830152871660608201526080810186905260a0810185905260c0810184905260e081018390526101208101600583106116c057634e487b7160e01b600052602160045260246000fd5b826101008301529a9950505050505050505050565b60208082526017908201527f73656e646572206973206e6f7420746865206f776e6572000000000000000000604082015260600190565b6020808252601690820152751dd85d18da195c88191bd95cc81b9bdd08195e1a5cdd60521b604082015260600190565b6020808252602a908201527f7377617020666f72207468697320494420697320656d707479206f7220616c726040820152691958591e481cdc195b9d60b21b606082015260800190565b6020808252601f908201527f5265656e7472616e637947756172643a207265656e7472616e742063616c6c00604082015260600190565b600082198211156117d0576117d061180c565b500190565b6000826117f057634e487b7160e01b81526012600452602481fd5b500490565b6000828210156118075761180761180c565b500390565b634e487b7160e01b600052601160045260246000fdfea2646970667358221220a01f3f24fcb106fc9f54d39650466922819e2a1cbcbb7885d1b28bea0ce4ea0364736f6c63430008040033",
    "sourcePath": "d:/github/atomex/atomex-solidity/contracts/Atomex.sol",
    "compiler": {
        "name": "solc",
        "version": "0.8.4+commit.c7e474f2"
    },
    "functionHashes": {
        "acceptOwnership()": "79ba5097",
        "activateWatcher(address)": "05cda195",
        "deactivateWatcher(address)": "febdddff",
        "initiate(bytes32,address,address,uint256,bool,uint256)": "8e46e9ff",
        "multikey(bytes32,address)": "5f69267b",
        "owner()": "8da5cb5b",
        "proposeOwner(address)": "b5ed298a",
        "proposeWatcher(address)": "7bc9c458",
        "redeem(bytes32,bytes32)": "b31597ad",
        "refund(bytes32)": "7249fbb6",
        "release(bytes32)": "67d42a8b",
        "renounceOwnership()": "715018a6",
        "successor()": "6ff968c3",
        "swaps(bytes32)": "eb84e7f2",
        "watchTowers(address)": "bb68634f",
        "withdrawWatcher()": "42b25350"
    },
    "gasEstimates": {
        "creation": {
            "codeDepositCost": "1246400",
            "executionCost": "62142",
            "totalCost": "1308542"
        },
        "external": {
            "acceptOwnership()": "25802",
            "activateWatcher(address)": "24072",
            "deactivateWatcher(address)": "24148",
            "initiate(bytes32,address,address,uint256,bool,uint256)": "infinite",
            "multikey(bytes32,address)": "infinite",
            "owner()": "1076",
            "proposeOwner(address)": "24250",
            "proposeWatcher(address)": "infinite",
            "redeem(bytes32,bytes32)": "infinite",
            "refund(bytes32)": "infinite",
            "release(bytes32)": "infinite",
            "renounceOwnership()": "24110",
            "successor()": "1043",
            "swaps(bytes32)": "8055",
            "watchTowers(address)": "2112",
            "withdrawWatcher()": "infinite"
        },
        "internal": {
            "withdraw(bytes32,address payable)": "infinite"
        }
    }
}